{
  "_format": "hh-sol-artifact-1",
  "contractName": "Vault",
  "sourceName": "contracts/Vault.sol",
  "abi": [
    {
      "inputs": [
        {
          "internalType": "contract IERC20",
          "name": "_token",
          "type": "address"
        },
        {
          "internalType": "contract IERC20",
          "name": "_collateral",
          "type": "address"
        },
        {
          "internalType": "uint32",
          "name": "_connectorWeight",
          "type": "uint32"
        },
        {
          "internalType": "uint256",
          "name": "_baseY",
          "type": "uint256"
        }
      ],
      "stateMutability": "nonpayable",
      "type": "constructor"
    },
    {
      "inputs": [
        {
          "internalType": "uint256",
          "name": "_tokensBurned",
          "type": "uint256"
        },
        {
          "internalType": "address",
          "name": "_recipient",
          "type": "address"
        }
      ],
      "name": "burn",
      "outputs": [
        {
          "internalType": "uint256",
          "name": "collateralReturned",
          "type": "uint256"
        }
      ],
      "stateMutability": "nonpayable",
      "type": "function"
    },
    {
      "inputs": [],
      "name": "maxWeight",
      "outputs": [
        {
          "internalType": "uint32",
          "name": "",
          "type": "uint32"
        }
      ],
      "stateMutability": "view",
      "type": "function"
    },
    {
      "inputs": [
        {
          "internalType": "uint256",
          "name": "_collateralDeposited",
          "type": "uint256"
        },
        {
          "internalType": "address",
          "name": "_recipient",
          "type": "address"
        }
      ],
      "name": "mint",
      "outputs": [
        {
          "internalType": "uint256",
          "name": "tokensReturned",
          "type": "uint256"
        }
      ],
      "stateMutability": "nonpayable",
      "type": "function"
    }
  ],
  "bytecode": "0x610120604052620f42406000806101000a81548163ffffffff021916908363ffffffff1602179055506200003f60016200016560201b620005a31760201c565b6fffffffffffffffffffffffffffffffff19166080906fffffffffffffffffffffffffffffffff191681525060006001553480156200007d57600080fd5b50604051620044c3380380620044c38339818101604052810190620000a391906200031f565b620f42408263ffffffff1611158015620000c3575060008263ffffffff16115b620000cd57600080fd5b8373ffffffffffffffffffffffffffffffffffffffff1660a08173ffffffffffffffffffffffffffffffffffffffff1660601b815250508273ffffffffffffffffffffffffffffffffffffffff1660c08173ffffffffffffffffffffffffffffffffffffffff1660601b815250508163ffffffff1660e08163ffffffff1660e01b81525050806101008181525050505050506200043b565b6000808214156200017d57600060801b9050620001eb565b600082905060006200019582620001f060201b60201c565b90506070811015620001b0578060700382901b9150620001c5565b6070811115620001c4576070810382901c91505b5b607081613fff01901b6dffffffffffffffffffffffffffff83161791508160801b925050505b919050565b6000808211620001ff57600080fd5b600070010000000000000000000000000000000083106200022857608083901c92506080810190505b6801000000000000000083106200024757604083901c92506040810190505b64010000000083106200026257602083901c92506020810190505b6201000083106200027b57601083901c92506010810190505b61010083106200029357600883901c92506008810190505b60108310620002aa57600483901c92506004810190505b60048310620002c157600283901c92506002810190505b60028310620002d1576001810190505b80915050919050565b600081519050620002eb81620003ed565b92915050565b600081519050620003028162000407565b92915050565b600081519050620003198162000421565b92915050565b600080600080608085870312156200033657600080fd5b60006200034687828801620002da565b94505060206200035987828801620002da565b93505060406200036c8782880162000308565b92505060606200037f87828801620002f1565b91505092959194509250565b60006200039882620003b3565b9050919050565b6000620003ac826200038b565b9050919050565b600073ffffffffffffffffffffffffffffffffffffffff82169050919050565b6000819050919050565b600063ffffffff82169050919050565b620003f8816200039f565b81146200040457600080fd5b50565b6200041281620003d3565b81146200041e57600080fd5b50565b6200042c81620003dd565b81146200043857600080fd5b50565b60805160801c60801b60a05160601c60c05160601c60e05160e01c61010051613fef620004d460003960006101db015260008181610176015281816101ab015261041c01526000818161021d01526104ee01526000818160c9015281816102cd0152818161037801526104610152600081816107500152818161079c0152818161089601528181610b8c0152610c0b0152613fef6000f3fe608060405234801561001057600080fd5b50600436106100415760003560e01c806394bf804d14610046578063a8b0bb8314610076578063fcd3533c14610094575b600080fd5b610060600480360381019061005b9190613caa565b6100c4565b60405161006d9190613d73565b60405180910390f35b61007e61035f565b60405161008b9190613d8e565b60405180910390f35b6100ae60048036038101906100a99190613caa565b610373565b6040516100bb9190613d73565b60405180910390f35b6000807f000000000000000000000000000000000000000000000000000000000000000073ffffffffffffffffffffffffffffffffffffffff166318160ddd6040518163ffffffff1660e01b815260040160206040518083038186803b15801561012d57600080fd5b505afa158015610141573d6000803e3d6000fd5b505050506040513d601f19601f820116820180604052508101906101659190613c81565b905060008111156101a55761019e847f000000000000000000000000000000000000000000000000000000000000000083600154610621565b9150610202565b6101ff847f000000000000000000000000000000000000000000000000000000000000000063ffffffff16670de0b6b3a76400007f000000000000000000000000000000000000000000000000000000000000000061088e565b91505b83600160008282546102149190613da9565b925050819055507f000000000000000000000000000000000000000000000000000000000000000073ffffffffffffffffffffffffffffffffffffffff166323b872dd3330876040518463ffffffff1660e01b815260040161027893929190613d13565b602060405180830381600087803b15801561029257600080fd5b505af11580156102a6573d6000803e3d6000fd5b505050506040513d601f19601f820116820180604052508101906102ca9190613c58565b507f000000000000000000000000000000000000000000000000000000000000000073ffffffffffffffffffffffffffffffffffffffff166340c10f1984846040518363ffffffff1660e01b8152600401610326929190613d4a565b600060405180830381600087803b15801561034057600080fd5b505af1158015610354573d6000803e3d6000fd5b505050505092915050565b60008054906101000a900463ffffffff1681565b6000807f000000000000000000000000000000000000000000000000000000000000000073ffffffffffffffffffffffffffffffffffffffff166318160ddd6040518163ffffffff1660e01b815260040160206040518083038186803b1580156103dc57600080fd5b505afa1580156103f0573d6000803e3d6000fd5b505050506040513d601f19601f820116820180604052508101906104149190613c81565b9050610444847f000000000000000000000000000000000000000000000000000000000000000083600154610a6f565b915081600160008282546104589190613e8a565b925050819055507f000000000000000000000000000000000000000000000000000000000000000073ffffffffffffffffffffffffffffffffffffffff16639dc29fac33866040518363ffffffff1660e01b81526004016104ba929190613d4a565b600060405180830381600087803b1580156104d457600080fd5b505af11580156104e8573d6000803e3d6000fd5b505050507f000000000000000000000000000000000000000000000000000000000000000073ffffffffffffffffffffffffffffffffffffffff166323b872dd3085856040518463ffffffff1660e01b815260040161054993929190613d13565b602060405180830381600087803b15801561056357600080fd5b505af1158015610577573d6000803e3d6000fd5b505050506040513d601f19601f8201168201806040525081019061059b9190613c58565b505092915050565b6000808214156105b957600060801b905061061c565b600082905060006105c982610d31565b905060708110156105e2578060700382901b91506105f6565b60708111156105f5576070810382901c91505b5b607081613fff01901b6dffffffffffffffffffffffffffff83161791508160801b925050505b919050565b60008082118015610638575060008463ffffffff16115b8015610660575060008054906101000a900463ffffffff1663ffffffff168463ffffffff1611155b61066957600080fd5b600085141561067b5760009050610886565b60008054906101000a900463ffffffff1663ffffffff168463ffffffff1614156106bd578185846106ac9190613e30565b6106b69190613dff565b9050610886565b60006107116106e160008054906101000a900463ffffffff1663ffffffff166105a3565b6106f08763ffffffff166105a3565b6fffffffffffffffffffffffffffffffff1916610e1290919063ffffffff16565b9050600061079061074e610724866105a3565b61072d8a6105a3565b6fffffffffffffffffffffffffffffffff1916610e1290919063ffffffff16565b7f00000000000000000000000000000000000000000000000000000000000000006fffffffffffffffffffffffffffffffff191661132790919063ffffffff16565b905060006108626108387f00000000000000000000000000000000000000000000000000000000000000006108176107ff876107de886fffffffffffffffffffffffffffffffff191661198c565b6fffffffffffffffffffffffffffffffff19166119ba90919063ffffffff16565b6fffffffffffffffffffffffffffffffff1916611e4f565b6fffffffffffffffffffffffffffffffff1916611e7d90919063ffffffff16565b610841886105a3565b6fffffffffffffffffffffffffffffffff19166119ba90919063ffffffff16565b9050610880816fffffffffffffffffffffffffffffffff1916611ea6565b93505050505b949350505050565b6000806109227f00000000000000000000000000000000000000000000000000000000000000006109016108c1886105a3565b6108e060008054906101000a900463ffffffff1663ffffffff166105a3565b6fffffffffffffffffffffffffffffffff1916610e1290919063ffffffff16565b6fffffffffffffffffffffffffffffffff1916611e7d90919063ffffffff16565b9050600061098a61097283610951610939886105a3565b6fffffffffffffffffffffffffffffffff191661198c565b6fffffffffffffffffffffffffffffffff19166119ba90919063ffffffff16565b6fffffffffffffffffffffffffffffffff1916611e4f565b90506000610a4482610a236109f96109e1876109c06109a88f6105a3565b6fffffffffffffffffffffffffffffffff191661198c565b6fffffffffffffffffffffffffffffffff19166119ba90919063ffffffff16565b6fffffffffffffffffffffffffffffffff1916611e4f565b610a028a6105a3565b6fffffffffffffffffffffffffffffffff19166119ba90919063ffffffff16565b6fffffffffffffffffffffffffffffffff1916610e1290919063ffffffff16565b9050610a62816fffffffffffffffffffffffffffffffff1916611ea6565b9350505050949350505050565b60008083118015610a805750600082115b8015610a92575060008463ffffffff16115b8015610aba575060008054906101000a900463ffffffff1663ffffffff168463ffffffff1611155b8015610ac65750828511155b610acf57600080fd5b6000851415610ae15760009050610d29565b82851415610af157819050610d29565b60008054906101000a900463ffffffff1663ffffffff168463ffffffff161415610b3357828583610b229190613e30565b610b2c9190613dff565b9050610d29565b6000610bcc610b8a610b5a60008054906101000a900463ffffffff1663ffffffff166105a3565b610b698863ffffffff166105a3565b6fffffffffffffffffffffffffffffffff1916610e1290919063ffffffff16565b7f00000000000000000000000000000000000000000000000000000000000000006fffffffffffffffffffffffffffffffff1916610e1290919063ffffffff16565b90506000610c4b610c09610bdf876105a3565b610be88a6105a3565b6fffffffffffffffffffffffffffffffff1916610e1290919063ffffffff16565b7f00000000000000000000000000000000000000000000000000000000000000006fffffffffffffffffffffffffffffffff1916611e7d90919063ffffffff16565b90506000610d05610cdb610cb1610c9986610c78876fffffffffffffffffffffffffffffffff191661198c565b6fffffffffffffffffffffffffffffffff19166119ba90919063ffffffff16565b6fffffffffffffffffffffffffffffffff1916611e4f565b610cba886105a3565b6fffffffffffffffffffffffffffffffff19166119ba90919063ffffffff16565b610ce4876105a3565b6fffffffffffffffffffffffffffffffff1916611e7d90919063ffffffff16565b9050610d23816fffffffffffffffffffffffffffffffff1916611ea6565b93505050505b949350505050565b6000808211610d3f57600080fd5b60007001000000000000000000000000000000008310610d6757608083901c92506080810190505b680100000000000000008310610d8557604083901c92506040810190505b6401000000008310610d9f57602083901c92506020810190505b620100008310610db757601083901c92506010810190505b6101008310610dce57600883901c92506008810190505b60108310610de457600483901c92506004810190505b60048310610dfa57600283901c92506002810190505b60028310610e09576001810190505b80915050919050565b600080617fff60708560801c6fffffffffffffffffffffffffffffffff16901c166fffffffffffffffffffffffffffffffff1690506000617fff60708560801c6fffffffffffffffffffffffffffffffff16901c166fffffffffffffffffffffffffffffffff169050617fff821415610ecd57617fff811415610eac576f7fff800000000000000000000000000060801b92505050611321565b6f8000000000000000000000000000000060801b8416851892505050611321565b617fff811415610f4c57600060801b6dffffffffffffffffffffffffffff60801b85166fffffffffffffffffffffffffffffffff191614610f25576f7fff800000000000000000000000000060801b92505050611321565b6f8000000000000000000000000000000060801b84861816600060801b1792505050611321565b600060801b6f7fffffffffffffffffffffffffffffff60801b85166fffffffffffffffffffffffffffffffff1916141561100757600060801b6f7fffffffffffffffffffffffffffffff60801b86166fffffffffffffffffffffffffffffffff19161415610fd1576f7fff800000000000000000000000000060801b92505050611321565b6f8000000000000000000000000000000060801b848618166f7fff000000000000000000000000000060801b1792505050611321565b60006dffffffffffffffffffffffffffff8560801c166fffffffffffffffffffffffffffffffff16905060008214156110435760019150611058565b6e010000000000000000000000000000811790505b60006dffffffffffffffffffffffffffff8760801c166fffffffffffffffffffffffffffffffff16905060008414156110bc57600081146110b757600061109e82610d31565b60e20390508082901b9150600194506072810384019350505b6110d5565b60726e0100000000000000000000000000008217901b90505b81818161110b577f4e487b7100000000000000000000000000000000000000000000000000000000600052601260045260246000fd5b049050600081141561117657600060801b6f8000000000000000000000000000000060801b878918166fffffffffffffffffffffffffffffffff19161161115657600060801b61116b565b6f8000000000000000000000000000000060801b5b945050505050611321565b6d10000000000000000000000000008110156111bb577f4e487b7100000000000000000000000000000000000000000000000000000000600052600160045260246000fd5b60006e08000000000000000000000000000082101561121c576e040000000000000000000000000000821015611211576e02000000000000000000000000000082101561120957607061120c565b60715b611214565b60725b60ff16611226565b61122582610d31565b5b90506140718401818601111561124457617fff9450600091506112e1565b83613ffc82870101101561125f5760009450600091506112e0565b83613f8c8287010110156112ad5783613ffc8601111561128a5783613ffc86010382901b91506112a4565b83613ffc860110156112a357613ffc8585030382901c91505b5b600094506112df565b60708111156112c0576070810382901c91505b6dffffffffffffffffffffffffffff8216915083613f8d828701010394505b5b5b81607086901b6f8000000000000000000000000000000060801b898b181660801c6fffffffffffffffffffffffffffffffff16171760801b955050505050505b92915050565b600080617fff60708560801c6fffffffffffffffffffffffffffffffff16901c166fffffffffffffffffffffffffffffffff1690506000617fff60708560801c6fffffffffffffffffffffffffffffffff16901c166fffffffffffffffffffffffffffffffff169050617fff82141561140357617fff8114156113f957836fffffffffffffffffffffffffffffffff1916856fffffffffffffffffffffffffffffffff191614156113dc578492505050611986565b6f7fff800000000000000000000000000060801b92505050611986565b8492505050611986565b617fff811415611417578392505050611986565b60006f800000000000000000000000000000008660801c6fffffffffffffffffffffffffffffffff161015905060006dffffffffffffffffffffffffffff8760801c166fffffffffffffffffffffffffffffffff16905060008414156114805760019350611495565b6e010000000000000000000000000000811790505b60006f800000000000000000000000000000008760801c6fffffffffffffffffffffffffffffffff161015905060006dffffffffffffffffffffffffffff8860801c166fffffffffffffffffffffffffffffffff16905060008514156114fe5760019450611513565b6e010000000000000000000000000000811790505b6000831415611575576f8000000000000000000000000000000060801b6fffffffffffffffffffffffffffffffff1916886fffffffffffffffffffffffffffffffff1916146115625787611568565b600060801b5b9650505050505050611986565b60008114156115d7576f8000000000000000000000000000000060801b6fffffffffffffffffffffffffffffffff1916896fffffffffffffffffffffffffffffffff1916146115c457886115ca565b600060801b5b9650505050505050611986565b6000858703905082151585151514156117555760708113156116025789975050505050505050611986565b6000811315611616578082901c9150611664565b7fffffffffffffffffffffffffffffffffffffffffffffffffffffffffffffff9081121561164d5788975050505050505050611986565b6000811215611663578060000384901c93508596505b5b81840193506e020000000000000000000000000000841061168d57600184901c93506001870196505b617fff8714156116d857846116b5576f7fff000000000000000000000000000060801b6116ca565b6fffff000000000000000000000000000060801b5b975050505050505050611986565b6e0100000000000000000000000000008410156116f8576000965061170c565b6dffffffffffffffffffffffffffff841693505b83607088901b8661171e576000611730565b6f800000000000000000000000000000005b6fffffffffffffffffffffffffffffffff16171760801b975050505050505050611986565b600081131561177057600184901b9350600187039650611788565b600081121561178757600182901b91506001860396505b5b607081131561179a5760019150611824565b60018113156117b657600180820360018403901c019150611823565b7fffffffffffffffffffffffffffffffffffffffffffffffffffffffffffffff908112156117e75760019350611822565b7fffffffffffffffffffffffffffffffffffffffffffffffffffffffffffffffff81121561182157600180826000030360018603901c0193505b5b5b5b81841061183557818403935061183e565b83820393508294505b600084141561185a57600060801b975050505050505050611986565b600061186585610d31565b90506071811415611892576dffffffffffffffffffffffffffff600186901c1694506001880197506118f4565b60708110156118df576000816070039050808911156118cb576dffffffffffffffffffffffffffff8187901b16955080890398506118d9565b6001890386901b9550600098505b506118f3565b6dffffffffffffffffffffffffffff851694505b5b617fff881415611940578561191c576f7fff000000000000000000000000000060801b611931565b6fffff000000000000000000000000000060801b5b98505050505050505050611986565b84607089901b87611952576000611964565b6f800000000000000000000000000000005b6fffffffffffffffffffffffffffffffff16171760801b985050505050505050505b92915050565b60006119b361199a83611fa4565b6f3ffe62e42fefa39ef35793c7673007e560801b6119ba565b9050919050565b600080617fff60708560801c6fffffffffffffffffffffffffffffffff16901c166fffffffffffffffffffffffffffffffff1690506000617fff60708560801c6fffffffffffffffffffffffffffffffff16901c166fffffffffffffffffffffffffffffffff169050617fff821415611b5157617fff811415611adf57836fffffffffffffffffffffffffffffffff1916856fffffffffffffffffffffffffffffffff19161415611a86576f8000000000000000000000000000000060801b8416851892505050611e49565b6f8000000000000000000000000000000060801b8486186fffffffffffffffffffffffffffffffff19161415611ac25783851792505050611e49565b6f7fff800000000000000000000000000060801b92505050611e49565b600060801b6f7fffffffffffffffffffffffffffffff60801b85166fffffffffffffffffffffffffffffffff19161415611b30576f7fff800000000000000000000000000060801b92505050611e49565b6f8000000000000000000000000000000060801b8416851892505050611e49565b617fff811415611bcd57600060801b6f7fffffffffffffffffffffffffffffff60801b86166fffffffffffffffffffffffffffffffff19161415611bac576f7fff800000000000000000000000000060801b92505050611e49565b6f8000000000000000000000000000000060801b8516841892505050611e49565b60006dffffffffffffffffffffffffffff8660801c166fffffffffffffffffffffffffffffffff1690506000831415611c095760019250611c1e565b6e010000000000000000000000000000811790505b60006dffffffffffffffffffffffffffff8660801c166fffffffffffffffffffffffffffffffff1690506000831415611c5a5760019250611c6f565b6e010000000000000000000000000000811790505b80820291506000821415611cdc57600060801b6f8000000000000000000000000000000060801b878918166fffffffffffffffffffffffffffffffff191611611cbc57600060801b611cd1565b6f8000000000000000000000000000000060801b5b945050505050611e49565b828401935060007c0200000000000000000000000000000000000000000000000000000000831015611d43577c0100000000000000000000000000000000000000000000000000000000831015611d3b57611d3683610d31565b611d3e565b60e05b611d46565b60e15b90506140708186011015611d61576000945060009250611e09565b6140e08186011015611da557614070851015611d8657846140700383901c9250611d9c565b614070851115611d9b57614070850383901b92505b5b60009450611e08565b61c0dd8186011115611dbf57617fff945060009250611e07565b6070811115611dd6576070810383901c9250611dea565b6070811015611de9578060700383901b92505b5b6dffffffffffffffffffffffffffff831692506140df8186010394505b5b5b82607086901b6f8000000000000000000000000000000060801b898b181660801c6fffffffffffffffffffffffffffffffff16171760801b955050505050505b92915050565b6000611e76611e71836f3fff71547652b82fe1777d0ffda0d23a60801b6119ba565b61225c565b9050919050565b6000611e9e836f8000000000000000000000000000000060801b8418611327565b905092915050565b600080617fff60708460801c6fffffffffffffffffffffffffffffffff16901c166fffffffffffffffffffffffffffffffff169050613fff811015611eef576000915050611f9f565b6f800000000000000000000000000000008360801c6fffffffffffffffffffffffffffffffff1610611f2057600080fd5b6140fe811115611f2f57600080fd5b60006e0100000000000000000000000000006dffffffffffffffffffffffffffff8560801c6fffffffffffffffffffffffffffffffff161617905061406f821015611f83578161406f0381901c9050611f99565b61406f821115611f985761406f820381901b90505b5b80925050505b919050565b60006f800000000000000000000000000000008260801c6fffffffffffffffffffffffffffffffff161115611fee576f7fff800000000000000000000000000060801b9050612257565b6f3fff000000000000000000000000000060801b826fffffffffffffffffffffffffffffffff1916141561202857600060801b9050612257565b6000617fff60708460801c6fffffffffffffffffffffffffffffffff16901c166fffffffffffffffffffffffffffffffff169050617fff81141561206f5782915050612257565b60006dffffffffffffffffffffffffffff8460801c166fffffffffffffffffffffffffffffffff16905060008214156120ab57600191506120c0565b6e010000000000000000000000000000811790505b60008114156120e6576fffff000000000000000000000000000060801b92505050612257565b60008061406f90506000613fff85106121105760009250613fff85039050600f84901b935061215d565b600192506e010000000000000000000000000000841061213d5784613ffe039050600f84901b935061215c565b600061214885610d31565b90508061406d03915080607f0385901b9450505b5b6f800000000000000000000000000000008414156121a3578215612182576001810190505b600061218d82610d31565b60700390508082901b9150808303925050612204565b6000836121b15760006121b4565b60015b60ff1690505b6e01000000000000000000000000000082101561220257600182901b91506001830392508485029450600060ff86901c90508181188301925080607f0186901c9550506121ba565b505b6dffffffffffffffffffffffffffff8116607083901b84612226576000612238565b6f800000000000000000000000000000005b6fffffffffffffffffffffffffffffffff16171760801b955050505050505b919050565b6000806f800000000000000000000000000000008360801c6fffffffffffffffffffffffffffffffff161190506000617fff60708560801c6fffffffffffffffffffffffffffffffff16901c166fffffffffffffffffffffffffffffffff16905060006dffffffffffffffffffffffffffff8560801c166fffffffffffffffffffffffffffffffff169050617fff821480156122f9575060008114155b1561231c576f7fff800000000000000000000000000060801b9350505050613bff565b61400d8211156123545782612344576f7fff000000000000000000000000000060801b61234a565b600060801b5b9350505050613bff565b613f7f82101561237c576f3fff000000000000000000000000000060801b9350505050613bff565b600082141561238e57600191506123a3565b6e010000000000000000000000000000811790505b613fef8211156123bc57613fef820381901b90506123d2565b613fef8210156123d15781613fef0381901c90505b5b8280156123f0575071406e0000000000000000000000000000000081115b1561240457600060801b9350505050613bff565b821580156124235750713fffffffffffffffffffffffffffffffffff81115b15612446576f7fff000000000000000000000000000060801b9350505050613bff565b6000608082901c90506fffffffffffffffffffffffffffffffff82169150838015612472575060008214155b1561248257811991506001810190505b60006f80000000000000000000000000000000905060006f80000000000000000000000000000000841611156124cd57608070016a09e667f3bcc908b2fb1366ea957d3e8202901c90505b60006f40000000000000000000000000000000841611156125035760807001306fe0a31b7152de8d5a46305c85edec8202901c90505b60006f20000000000000000000000000000000841611156125395760807001172b83c7d517adcdf7c8c50eb14a791f8202901c90505b60006f100000000000000000000000000000008416111561256f57608070010b5586cf9890f6298b92b71842a983638202901c90505b60006f08000000000000000000000000000000841611156125a55760807001059b0d31585743ae7c548eb68ca417fd8202901c90505b60006f04000000000000000000000000000000841611156125db576080700102c9a3e778060ee6f7caca4f7a29bde88202901c90505b60006f020000000000000000000000000000008416111561261157608070010163da9fb33356d84a66ae336dcdfa3f8202901c90505b60006f0100000000000000000000000000000084161115612647576080700100b1afa5abcbed6129ab13ec11dc95438202901c90505b60006e8000000000000000000000000000008416111561267c57608070010058c86da1c09ea1ff19d294cf2f679b8202901c90505b60006e400000000000000000000000000000841611156126b15760807001002c605e2e8cec506d21bfc89a23a00f8202901c90505b60006e200000000000000000000000000000841611156126e6576080700100162f3904051fa128bca9c55c31e5df8202901c90505b60006e1000000000000000000000000000008416111561271b5760807001000b175effdc76ba38e31671ca9397258202901c90505b60006e08000000000000000000000000000084161115612750576080700100058ba01fb9f96d6cacd4b180917c3d8202901c90505b60006e0400000000000000000000000000008416111561278557608070010002c5cc37da9491d0985c348c68e7b38202901c90505b60006e020000000000000000000000000000841611156127ba5760807001000162e525ee054754457d59952920268202901c90505b60006e010000000000000000000000000000841611156127ef57608070010000b17255775c040618bf4a4ade83fc8202901c90505b60006d8000000000000000000000000000841611156128235760807001000058b91b5bc9ae2eed81e9b7d4cfab8202901c90505b60006d400000000000000000000000000084161115612857576080700100002c5c89d5ec6ca4d7c8acc017b7c98202901c90505b60006d20000000000000000000000000008416111561288b57608070010000162e43f4f831060e02d839a9d16d8202901c90505b60006d1000000000000000000000000000841611156128bf576080700100000b1721bcfc99d9f890ea069117638202901c90505b60006d0800000000000000000000000000841611156128f357608070010000058b90cf1e6d97f9ca14dbcc16288202901c90505b60006d0400000000000000000000000000841611156129275760807001000002c5c863b73f016468f6bac5ca2b8202901c90505b60006d02000000000000000000000000008416111561295b576080700100000162e430e5a18f6119e3c02282a58202901c90505b60006d01000000000000000000000000008416111561298f5760807001000000b1721835514b86e6d96efd1bfe8202901c90505b60006c80000000000000000000000000841611156129c2576080700100000058b90c0b48c6be5df846c5b2ef8202901c90505b60006c40000000000000000000000000841611156129f557608070010000002c5c8601cc6b9e94213c72737a8202901c90505b60006c2000000000000000000000000084161115612a285760807001000000162e42fff037df38aa2b219f068202901c90505b60006c1000000000000000000000000084161115612a5b57608070010000000b17217fba9c739aa5819f44f98202901c90505b60006c0800000000000000000000000084161115612a8e5760807001000000058b90bfcdee5acd3c1cedc8238202901c90505b60006c0400000000000000000000000084161115612ac1576080700100000002c5c85fe31f35a6a30da1be508202901c90505b60006c0200000000000000000000000084161115612af457608070010000000162e42ff0999ce3541b9fffcf8202901c90505b60006c0100000000000000000000000084161115612b27576080700100000000b17217f80f4ef5aadda455548202901c90505b60006b80000000000000000000000084161115612b5957608070010000000058b90bfbf8479bd5a81b51ad8202901c90505b60006b40000000000000000000000084161115612b8b5760807001000000002c5c85fdf84bd62ae30a74cc8202901c90505b60006b20000000000000000000000084161115612bbd576080700100000000162e42fefb2fed257559bdaa8202901c90505b60006b10000000000000000000000084161115612bef5760807001000000000b17217f7d5a7716bba4a9ae8202901c90505b60006b08000000000000000000000084161115612c21576080700100000000058b90bfbe9ddbac5e109cce8202901c90505b60006b04000000000000000000000084161115612c5357608070010000000002c5c85fdf4b15de6f17eb0d8202901c90505b60006b02000000000000000000000084161115612c855760807001000000000162e42fefa494f1478fde058202901c90505b60006b01000000000000000000000084161115612cb757608070010000000000b17217f7d20cf927c8e94c8202901c90505b60006a800000000000000000000084161115612ce85760807001000000000058b90bfbe8f71cb4e4b33d8202901c90505b60006a400000000000000000000084161115612d19576080700100000000002c5c85fdf477b662b269458202901c90505b60006a200000000000000000000084161115612d4a57608070010000000000162e42fefa3ae53369388c8202901c90505b60006a100000000000000000000084161115612d7b576080700100000000000b17217f7d1d351a389d408202901c90505b60006a080000000000000000000084161115612dac57608070010000000000058b90bfbe8e8b2d3d4ede8202901c90505b60006a040000000000000000000084161115612ddd5760807001000000000002c5c85fdf4741bea6e77e8202901c90505b60006a020000000000000000000084161115612e0e576080700100000000000162e42fefa39fe95583c28202901c90505b60006a010000000000000000000084161115612e3f5760807001000000000000b17217f7d1cfb72b45e18202901c90505b6000698000000000000000000084161115612e6f576080700100000000000058b90bfbe8e7cc35c3f08202901c90505b6000694000000000000000000084161115612e9f57608070010000000000002c5c85fdf473e242ea388202901c90505b6000692000000000000000000084161115612ecf5760807001000000000000162e42fefa39f02b772c8202901c90505b6000691000000000000000000084161115612eff57608070010000000000000b17217f7d1cf7d83c1a8202901c90505b6000690800000000000000000084161115612f2f5760807001000000000000058b90bfbe8e7bdcbe2e8202901c90505b6000690400000000000000000084161115612f5f576080700100000000000002c5c85fdf473dea871f8202901c90505b6000690200000000000000000084161115612f8f57608070010000000000000162e42fefa39ef44d918202901c90505b6000690100000000000000000084161115612fbf576080700100000000000000b17217f7d1cf79e9498202901c90505b60006880000000000000000084161115612fee57608070010000000000000058b90bfbe8e7bce5448202901c90505b6000684000000000000000008416111561301d5760807001000000000000002c5c85fdf473de6eca8202901c90505b6000682000000000000000008416111561304c576080700100000000000000162e42fefa39ef366f8202901c90505b6000681000000000000000008416111561307b5760807001000000000000000b17217f7d1cf79afa8202901c90505b600068080000000000000000841611156130aa576080700100000000000000058b90bfbe8e7bcd6d8202901c90505b600068040000000000000000841611156130d957608070010000000000000002c5c85fdf473de6b28202901c90505b600068020000000000000000841611156131085760807001000000000000000162e42fefa39ef3588202901c90505b6000680100000000000000008416111561313757608070010000000000000000b17217f7d1cf79ab8202901c90505b6000678000000000000000841611156131655760807001000000000000000058b90bfbe8e7bcd58202901c90505b600067400000000000000084161115613193576080700100000000000000002c5c85fdf473de6a8202901c90505b6000672000000000000000841611156131c157608070010000000000000000162e42fefa39ef348202901c90505b6000671000000000000000841611156131ef576080700100000000000000000b17217f7d1cf7998202901c90505b60006708000000000000008416111561321d57608070010000000000000000058b90bfbe8e7bcc8202901c90505b60006704000000000000008416111561324b5760807001000000000000000002c5c85fdf473de58202901c90505b600067020000000000000084161115613279576080700100000000000000000162e42fefa39ef28202901c90505b6000670100000000000000841611156132a75760807001000000000000000000b17217f7d1cf788202901c90505b60006680000000000000841611156132d4576080700100000000000000000058b90bfbe8e7bb8202901c90505b600066400000000000008416111561330157608070010000000000000000002c5c85fdf473dd8202901c90505b600066200000000000008416111561332e5760807001000000000000000000162e42fefa39ee8202901c90505b600066100000000000008416111561335b57608070010000000000000000000b17217f7d1cf68202901c90505b60006608000000000000841611156133885760807001000000000000000000058b90bfbe8e7a8202901c90505b60006604000000000000841611156133b5576080700100000000000000000002c5c85fdf473c8202901c90505b60006602000000000000841611156133e257608070010000000000000000000162e42fefa39d8202901c90505b600066010000000000008416111561340f576080700100000000000000000000b17217f7d1ce8202901c90505b6000658000000000008416111561343b57608070010000000000000000000058b90bfbe8e68202901c90505b600065400000000000841611156134675760807001000000000000000000002c5c85fdf4728202901c90505b60006520000000000084161115613493576080700100000000000000000000162e42fefa388202901c90505b600065100000000000841611156134bf5760807001000000000000000000000b17217f7d1b8202901c90505b600065080000000000841611156134eb576080700100000000000000000000058b90bfbe8d8202901c90505b6000650400000000008416111561351757608070010000000000000000000002c5c85fdf468202901c90505b600065020000000000841611156135435760807001000000000000000000000162e42fefa28202901c90505b6000650100000000008416111561356f57608070010000000000000000000000b17217f7d08202901c90505b60006480000000008416111561359a5760807001000000000000000000000058b90bfbe78202901c90505b6000644000000000841611156135c5576080700100000000000000000000002c5c85fdf38202901c90505b6000642000000000841611156135f057608070010000000000000000000000162e42fef98202901c90505b60006410000000008416111561361b576080700100000000000000000000000b17217f7c8202901c90505b60006408000000008416111561364657608070010000000000000000000000058b90bfbd8202901c90505b6000640400000000841611156136715760807001000000000000000000000002c5c85fde8202901c90505b60006402000000008416111561369c576080700100000000000000000000000162e42fee8202901c90505b6000640100000000841611156136c75760807001000000000000000000000000b17217f68202901c90505b60006380000000841611156136f1576080700100000000000000000000000058b90bfa8202901c90505b600063400000008416111561371b57608070010000000000000000000000002c5c85fc8202901c90505b60006320000000841611156137455760807001000000000000000000000000162e42fd8202901c90505b600063100000008416111561376f57608070010000000000000000000000000b17217e8202901c90505b60006308000000841611156137995760807001000000000000000000000000058b90be8202901c90505b60006304000000841611156137c3576080700100000000000000000000000002c5c85e8202901c90505b60006302000000841611156137ed57608070010000000000000000000000000162e42e8202901c90505b6000630100000084161115613817576080700100000000000000000000000000b172168202901c90505b6000628000008416111561384057608070010000000000000000000000000058b90a8202901c90505b600062400000841611156138695760807001000000000000000000000000002c5c848202901c90505b60006220000084161115613892576080700100000000000000000000000000162e418202901c90505b600062100000841611156138bb5760807001000000000000000000000000000b17208202901c90505b600062080000841611156138e4576080700100000000000000000000000000058b8f8202901c90505b6000620400008416111561390d57608070010000000000000000000000000002c5c78202901c90505b600062020000841611156139365760807001000000000000000000000000000162e38202901c90505b6000620100008416111561395f57608070010000000000000000000000000000b1718202901c90505b6000618000841611156139875760807001000000000000000000000000000058b88202901c90505b6000614000841611156139af576080700100000000000000000000000000002c5b8202901c90505b6000612000841611156139d757608070010000000000000000000000000000162d8202901c90505b6000611000841611156139ff576080700100000000000000000000000000000b168202901c90505b600061080084161115613a2757608070010000000000000000000000000000058a8202901c90505b600061040084161115613a4f5760807001000000000000000000000000000002c48202901c90505b600061020084161115613a775760807001000000000000000000000000000001618202901c90505b600061010084161115613a9f5760807001000000000000000000000000000000b08202901c90505b6000608084161115613ac65760807001000000000000000000000000000000578202901c90505b6000604084161115613aed57608070010000000000000000000000000000002b8202901c90505b6000602084161115613b145760807001000000000000000000000000000000158202901c90505b6000601084161115613b3b57608070010000000000000000000000000000000a8202901c90505b6000600884161115613b625760807001000000000000000000000000000000048202901c90505b6000600484161115613b895760807001000000000000000000000000000000018202901c90505b84613bb1576dffffffffffffffffffffffffffff600f82901c169050613fff82019150613bed565b613ffe8211613bdd576dffffffffffffffffffffffffffff600f82901c16905081613fff039150613bec565b613fef820381901c9050600091505b5b80607083901b1760801b955050505050505b919050565b600081359050613c1381613f74565b92915050565b600081519050613c2881613f8b565b92915050565b600081359050613c3d81613fa2565b92915050565b600081519050613c5281613fa2565b92915050565b600060208284031215613c6a57600080fd5b6000613c7884828501613c19565b91505092915050565b600060208284031215613c9357600080fd5b6000613ca184828501613c43565b91505092915050565b60008060408385031215613cbd57600080fd5b6000613ccb85828601613c2e565b9250506020613cdc85828601613c04565b9150509250929050565b613cef81613ebe565b82525050565b613cfe81613efc565b82525050565b613d0d81613f06565b82525050565b6000606082019050613d286000830186613ce6565b613d356020830185613ce6565b613d426040830184613cf5565b949350505050565b6000604082019050613d5f6000830185613ce6565b613d6c6020830184613cf5565b9392505050565b6000602082019050613d886000830184613cf5565b92915050565b6000602082019050613da36000830184613d04565b92915050565b6000613db482613efc565b9150613dbf83613efc565b9250827fffffffffffffffffffffffffffffffffffffffffffffffffffffffffffffffff03821115613df457613df3613f16565b5b828201905092915050565b6000613e0a82613efc565b9150613e1583613efc565b925082613e2557613e24613f45565b5b828204905092915050565b6000613e3b82613efc565b9150613e4683613efc565b9250817fffffffffffffffffffffffffffffffffffffffffffffffffffffffffffffffff0483118215151615613e7f57613e7e613f16565b5b828202905092915050565b6000613e9582613efc565b9150613ea083613efc565b925082821015613eb357613eb2613f16565b5b828203905092915050565b6000613ec982613edc565b9050919050565b60008115159050919050565b600073ffffffffffffffffffffffffffffffffffffffff82169050919050565b6000819050919050565b600063ffffffff82169050919050565b7f4e487b7100000000000000000000000000000000000000000000000000000000600052601160045260246000fd5b7f4e487b7100000000000000000000000000000000000000000000000000000000600052601260045260246000fd5b613f7d81613ebe565b8114613f8857600080fd5b50565b613f9481613ed0565b8114613f9f57600080fd5b50565b613fab81613efc565b8114613fb657600080fd5b5056fea2646970667358221220a7248e6ba40940f03efb9263dd8723a11b8d5a67c169c351b0087452f32c62ab64736f6c63430008040033",
  "linkReferences": {},
  "deployedLinkReferences": {}
}