{
  "_format": "hh-sol-artifact-1",
  "contractName": "BancorZeroFormula",
  "sourceName": "contracts/BancorZeroFormula.sol",
  "abi": [
    {
      "inputs": [],
      "name": "maxWeight",
      "outputs": [
        {
          "internalType": "uint32",
          "name": "",
          "type": "uint32"
        }
      ],
      "stateMutability": "view",
      "type": "function"
    }
  ],
  "bytecode": "0x60a0604052620f42406000806101000a81548163ffffffff021916908363ffffffff16021790555061003b600161007960201b6100621760201c565b6fffffffffffffffffffffffffffffffff19166080906fffffffffffffffffffffffffffffffff191681525034801561007357600080fd5b506101de565b60008082141561008f57600060801b90506100f8565b600082905060006100a5826100fd60201b60201c565b905060708110156100be578060700382901b91506100d2565b60708111156100d1576070810382901c91505b5b607081613fff01901b6dffffffffffffffffffffffffffff83161791508160801b925050505b919050565b600080821161010b57600080fd5b6000700100000000000000000000000000000000831061013357608083901c92506080810190505b68010000000000000000831061015157604083901c92506040810190505b640100000000831061016b57602083901c92506020810190505b62010000831061018357601083901c92506010810190505b610100831061019a57600883901c92506008810190505b601083106101b057600483901c92506004810190505b600483106101c657600283901c92506002810190505b600283106101d5576001810190505b80915050919050565b60805160801c60801b6102316101fc600039600050506102316000f3fe608060405234801561001057600080fd5b506004361061002b5760003560e01c8063a8b0bb8314610030575b600080fd5b61003861004e565b60405161004591906101d0565b60405180910390f35b60008054906101000a900463ffffffff1681565b60008082141561007857600060801b90506100db565b60008290506000610088826100e0565b905060708110156100a1578060700382901b91506100b5565b60708111156100b4576070810382901c91505b5b607081613fff01901b6dffffffffffffffffffffffffffff83161791508160801b925050505b919050565b60008082116100ee57600080fd5b6000700100000000000000000000000000000000831061011657608083901c92506080810190505b68010000000000000000831061013457604083901c92506040810190505b640100000000831061014e57602083901c92506020810190505b62010000831061016657601083901c92506010810190505b610100831061017d57600883901c92506008810190505b6010831061019357600483901c92506004810190505b600483106101a957600283901c92506002810190505b600283106101b8576001810190505b80915050919050565b6101ca816101eb565b82525050565b60006020820190506101e560008301846101c1565b92915050565b600063ffffffff8216905091905056fea26469706673582212209d08bf57f12f9775843a59fad5fa246a22ba6b93de093925efb678ec3f0c3e2164736f6c63430008040033",
  "linkReferences": {},
  "deployedLinkReferences": {}
}