{
  "_format": "hh-sol-artifact-1",
  "contractName": "Token",
  "sourceName": "contracts/Token.sol",
  "abi": [
    {
      "inputs": [
        {
          "internalType": "string",
          "name": "_name",
          "type": "string"
        },
        {
          "internalType": "string",
          "name": "_symbol",
          "type": "string"
        }
      ],
      "stateMutability": "nonpayable",
      "type": "constructor"
    },
    {
      "anonymous": false,
      "inputs": [
        {
          "indexed": true,
          "internalType": "address",
          "name": "owner",
          "type": "address"
        },
        {
          "indexed": true,
          "internalType": "address",
          "name": "spender",
          "type": "address"
        },
        {
          "indexed": false,
          "internalType": "uint256",
          "name": "value",
          "type": "uint256"
        }
      ],
      "name": "Approval",
      "type": "event"
    },
    {
      "anonymous": false,
      "inputs": [
        {
          "indexed": true,
          "internalType": "address",
          "name": "previousOwner",
          "type": "address"
        },
        {
          "indexed": true,
          "internalType": "address",
          "name": "newOwner",
          "type": "address"
        }
      ],
      "name": "OwnershipTransferred",
      "type": "event"
    },
    {
      "anonymous": false,
      "inputs": [
        {
          "indexed": true,
          "internalType": "address",
          "name": "from",
          "type": "address"
        },
        {
          "indexed": true,
          "internalType": "address",
          "name": "to",
          "type": "address"
        },
        {
          "indexed": false,
          "internalType": "uint256",
          "name": "value",
          "type": "uint256"
        }
      ],
      "name": "Transfer",
      "type": "event"
    },
    {
      "inputs": [
        {
          "internalType": "address",
          "name": "owner",
          "type": "address"
        },
        {
          "internalType": "address",
          "name": "spender",
          "type": "address"
        }
      ],
      "name": "allowance",
      "outputs": [
        {
          "internalType": "uint256",
          "name": "",
          "type": "uint256"
        }
      ],
      "stateMutability": "view",
      "type": "function"
    },
    {
      "inputs": [
        {
          "internalType": "address",
          "name": "spender",
          "type": "address"
        },
        {
          "internalType": "uint256",
          "name": "amount",
          "type": "uint256"
        }
      ],
      "name": "approve",
      "outputs": [
        {
          "internalType": "bool",
          "name": "",
          "type": "bool"
        }
      ],
      "stateMutability": "nonpayable",
      "type": "function"
    },
    {
      "inputs": [
        {
          "internalType": "address",
          "name": "account",
          "type": "address"
        }
      ],
      "name": "balanceOf",
      "outputs": [
        {
          "internalType": "uint256",
          "name": "",
          "type": "uint256"
        }
      ],
      "stateMutability": "view",
      "type": "function"
    },
    {
      "inputs": [
        {
          "internalType": "uint256",
          "name": "amount",
          "type": "uint256"
        }
      ],
      "name": "burn",
      "outputs": [],
      "stateMutability": "nonpayable",
      "type": "function"
    },
    {
      "inputs": [
        {
          "internalType": "address",
          "name": "from",
          "type": "address"
        },
        {
          "internalType": "uint256",
          "name": "value",
          "type": "uint256"
        }
      ],
      "name": "burn",
      "outputs": [],
      "stateMutability": "nonpayable",
      "type": "function"
    },
    {
      "inputs": [
        {
          "internalType": "address",
          "name": "account",
          "type": "address"
        },
        {
          "internalType": "uint256",
          "name": "amount",
          "type": "uint256"
        }
      ],
      "name": "burnFrom",
      "outputs": [],
      "stateMutability": "nonpayable",
      "type": "function"
    },
    {
      "inputs": [],
      "name": "decimals",
      "outputs": [
        {
          "internalType": "uint8",
          "name": "",
          "type": "uint8"
        }
      ],
      "stateMutability": "view",
      "type": "function"
    },
    {
      "inputs": [
        {
          "internalType": "address",
          "name": "spender",
          "type": "address"
        },
        {
          "internalType": "uint256",
          "name": "subtractedValue",
          "type": "uint256"
        }
      ],
      "name": "decreaseAllowance",
      "outputs": [
        {
          "internalType": "bool",
          "name": "",
          "type": "bool"
        }
      ],
      "stateMutability": "nonpayable",
      "type": "function"
    },
    {
      "inputs": [
        {
          "internalType": "address",
          "name": "spender",
          "type": "address"
        },
        {
          "internalType": "uint256",
          "name": "addedValue",
          "type": "uint256"
        }
      ],
      "name": "increaseAllowance",
      "outputs": [
        {
          "internalType": "bool",
          "name": "",
          "type": "bool"
        }
      ],
      "stateMutability": "nonpayable",
      "type": "function"
    },
    {
      "inputs": [
        {
          "internalType": "address",
          "name": "to",
          "type": "address"
        },
        {
          "internalType": "uint256",
          "name": "amount",
          "type": "uint256"
        }
      ],
      "name": "mint",
      "outputs": [],
      "stateMutability": "nonpayable",
      "type": "function"
    },
    {
      "inputs": [],
      "name": "name",
      "outputs": [
        {
          "internalType": "string",
          "name": "",
          "type": "string"
        }
      ],
      "stateMutability": "view",
      "type": "function"
    },
    {
      "inputs": [],
      "name": "owner",
      "outputs": [
        {
          "internalType": "address",
          "name": "",
          "type": "address"
        }
      ],
      "stateMutability": "view",
      "type": "function"
    },
    {
      "inputs": [],
      "name": "renounceOwnership",
      "outputs": [],
      "stateMutability": "nonpayable",
      "type": "function"
    },
    {
      "inputs": [],
      "name": "symbol",
      "outputs": [
        {
          "internalType": "string",
          "name": "",
          "type": "string"
        }
      ],
      "stateMutability": "view",
      "type": "function"
    },
    {
      "inputs": [],
      "name": "totalSupply",
      "outputs": [
        {
          "internalType": "uint256",
          "name": "",
          "type": "uint256"
        }
      ],
      "stateMutability": "view",
      "type": "function"
    },
    {
      "inputs": [
        {
          "internalType": "address",
          "name": "recipient",
          "type": "address"
        },
        {
          "internalType": "uint256",
          "name": "amount",
          "type": "uint256"
        }
      ],
      "name": "transfer",
      "outputs": [
        {
          "internalType": "bool",
          "name": "",
          "type": "bool"
        }
      ],
      "stateMutability": "nonpayable",
      "type": "function"
    },
    {
      "inputs": [
        {
          "internalType": "address",
          "name": "sender",
          "type": "address"
        },
        {
          "internalType": "address",
          "name": "recipient",
          "type": "address"
        },
        {
          "internalType": "uint256",
          "name": "amount",
          "type": "uint256"
        }
      ],
      "name": "transferFrom",
      "outputs": [
        {
          "internalType": "bool",
          "name": "",
          "type": "bool"
        }
      ],
      "stateMutability": "nonpayable",
      "type": "function"
    },
    {
      "inputs": [
        {
          "internalType": "address",
          "name": "newOwner",
          "type": "address"
        }
      ],
      "name": "transferOwnership",
      "outputs": [],
      "stateMutability": "nonpayable",
      "type": "function"
    },
    {
      "inputs": [],
      "name": "version",
      "outputs": [
        {
          "internalType": "string",
          "name": "",
          "type": "string"
        }
      ],
      "stateMutability": "view",
      "type": "function"
    }
  ],
  "bytecode": "0x60806040523480156200001157600080fd5b5060405162002524380380620025248339818101604052810190620000379190620002d3565b8181816003908051906020019062000051929190620001b1565b5080600490805190602001906200006a929190620001b1565b5050506200008d62000081620000e360201b60201c565b620000eb60201b60201c565b6040518060400160405280600381526020017f302e32000000000000000000000000000000000000000000000000000000000081525060069080519060200190620000da929190620001b1565b505050620004b6565b600033905090565b6000600560009054906101000a900473ffffffffffffffffffffffffffffffffffffffff16905081600560006101000a81548173ffffffffffffffffffffffffffffffffffffffff021916908373ffffffffffffffffffffffffffffffffffffffff1602179055508173ffffffffffffffffffffffffffffffffffffffff168173ffffffffffffffffffffffffffffffffffffffff167f8be0079c531659141344cd1fd0a4f28419497f9722a3daafe3b4186f6b6457e060405160405180910390a35050565b828054620001bf90620003db565b90600052602060002090601f016020900481019282620001e357600085556200022f565b82601f10620001fe57805160ff19168380011785556200022f565b828001600101855582156200022f579182015b828111156200022e57825182559160200191906001019062000211565b5b5090506200023e919062000242565b5090565b5b808211156200025d57600081600090555060010162000243565b5090565b60006200027862000272846200036f565b62000346565b9050828152602081018484840111156200029157600080fd5b6200029e848285620003a5565b509392505050565b600082601f830112620002b857600080fd5b8151620002ca84826020860162000261565b91505092915050565b60008060408385031215620002e757600080fd5b600083015167ffffffffffffffff8111156200030257600080fd5b6200031085828601620002a6565b925050602083015167ffffffffffffffff8111156200032e57600080fd5b6200033c85828601620002a6565b9150509250929050565b60006200035262000365565b905062000360828262000411565b919050565b6000604051905090565b600067ffffffffffffffff8211156200038d576200038c62000476565b5b6200039882620004a5565b9050602081019050919050565b60005b83811015620003c5578082015181840152602081019050620003a8565b83811115620003d5576000848401525b50505050565b60006002820490506001821680620003f457607f821691505b602082108114156200040b576200040a62000447565b5b50919050565b6200041c82620004a5565b810181811067ffffffffffffffff821117156200043e576200043d62000476565b5b80604052505050565b7f4e487b7100000000000000000000000000000000000000000000000000000000600052602260045260246000fd5b7f4e487b7100000000000000000000000000000000000000000000000000000000600052604160045260246000fd5b6000601f19601f8301169050919050565b61205e80620004c66000396000f3fe608060405234801561001057600080fd5b50600436106101215760003560e01c806370a08231116100ad5780639dc29fac116100715780639dc29fac146102f8578063a457c2d714610314578063a9059cbb14610344578063dd62ed3e14610374578063f2fde38b146103a457610121565b806370a0823114610266578063715018a61461029657806379cc6790146102a05780638da5cb5b146102bc57806395d89b41146102da57610121565b8063313ce567116100f4578063313ce567146101c257806339509351146101e057806340c10f191461021057806342966c681461022c57806354fd4d501461024857610121565b806306fdde0314610126578063095ea7b31461014457806318160ddd1461017457806323b872dd14610192575b600080fd5b61012e6103c0565b60405161013b919061187c565b60405180910390f35b61015e600480360381019061015991906115a5565b610452565b60405161016b9190611861565b60405180910390f35b61017c610470565b6040516101899190611a3e565b60405180910390f35b6101ac60048036038101906101a79190611556565b61047a565b6040516101b99190611861565b60405180910390f35b6101ca610572565b6040516101d79190611a59565b60405180910390f35b6101fa60048036038101906101f591906115a5565b61057b565b6040516102079190611861565b60405180910390f35b61022a600480360381019061022591906115a5565b610627565b005b610246600480360381019061024191906115e1565b6106b1565b005b6102506106c5565b60405161025d919061187c565b60405180910390f35b610280600480360381019061027b91906114f1565b610753565b60405161028d9190611a3e565b60405180910390f35b61029e61079b565b005b6102ba60048036038101906102b591906115a5565b610823565b005b6102c461089e565b6040516102d19190611846565b60405180910390f35b6102e26108c8565b6040516102ef919061187c565b60405180910390f35b610312600480360381019061030d91906115a5565b61095a565b005b61032e600480360381019061032991906115a5565b6109e4565b60405161033b9190611861565b60405180910390f35b61035e600480360381019061035991906115a5565b610acf565b60405161036b9190611861565b60405180910390f35b61038e6004803603810190610389919061151a565b610aed565b60405161039b9190611a3e565b60405180910390f35b6103be60048036038101906103b991906114f1565b610b74565b005b6060600380546103cf90611ba2565b80601f01602080910402602001604051908101604052809291908181526020018280546103fb90611ba2565b80156104485780601f1061041d57610100808354040283529160200191610448565b820191906000526020600020905b81548152906001019060200180831161042b57829003601f168201915b5050505050905090565b600061046661045f610c6c565b8484610c74565b6001905092915050565b6000600254905090565b6000610487848484610e3f565b6000600160008673ffffffffffffffffffffffffffffffffffffffff1673ffffffffffffffffffffffffffffffffffffffff16815260200190815260200160002060006104d2610c6c565b73ffffffffffffffffffffffffffffffffffffffff1673ffffffffffffffffffffffffffffffffffffffff16815260200190815260200160002054905082811015610552576040517f08c379a00000000000000000000000000000000000000000000000000000000081526004016105499061193e565b60405180910390fd5b6105668561055e610c6c565b858403610c74565b60019150509392505050565b60006012905090565b600061061d610588610c6c565b848460016000610596610c6c565b73ffffffffffffffffffffffffffffffffffffffff1673ffffffffffffffffffffffffffffffffffffffff16815260200190815260200160002060008873ffffffffffffffffffffffffffffffffffffffff1673ffffffffffffffffffffffffffffffffffffffff168152602001908152602001600020546106189190611a90565b610c74565b6001905092915050565b61062f610c6c565b73ffffffffffffffffffffffffffffffffffffffff1661064d61089e565b73ffffffffffffffffffffffffffffffffffffffff16146106a3576040517f08c379a000000000000000000000000000000000000000000000000000000000815260040161069a9061195e565b60405180910390fd5b6106ad82826110c0565b5050565b6106c26106bc610c6c565b82611220565b50565b600680546106d290611ba2565b80601f01602080910402602001604051908101604052809291908181526020018280546106fe90611ba2565b801561074b5780601f106107205761010080835404028352916020019161074b565b820191906000526020600020905b81548152906001019060200180831161072e57829003601f168201915b505050505081565b60008060008373ffffffffffffffffffffffffffffffffffffffff1673ffffffffffffffffffffffffffffffffffffffff168152602001908152602001600020549050919050565b6107a3610c6c565b73ffffffffffffffffffffffffffffffffffffffff166107c161089e565b73ffffffffffffffffffffffffffffffffffffffff1614610817576040517f08c379a000000000000000000000000000000000000000000000000000000000815260040161080e9061195e565b60405180910390fd5b61082160006113f7565b565b600061083683610831610c6c565b610aed565b90508181101561087b576040517f08c379a00000000000000000000000000000000000000000000000000000000081526004016108729061197e565b60405180910390fd5b61088f83610887610c6c565b848403610c74565b6108998383611220565b505050565b6000600560009054906101000a900473ffffffffffffffffffffffffffffffffffffffff16905090565b6060600480546108d790611ba2565b80601f016020809104026020016040519081016040528092919081815260200182805461090390611ba2565b80156109505780601f1061092557610100808354040283529160200191610950565b820191906000526020600020905b81548152906001019060200180831161093357829003601f168201915b5050505050905090565b610962610c6c565b73ffffffffffffffffffffffffffffffffffffffff1661098061089e565b73ffffffffffffffffffffffffffffffffffffffff16146109d6576040517f08c379a00000000000000000000000000000000000000000000000000000000081526004016109cd9061195e565b60405180910390fd5b6109e08282611220565b5050565b600080600160006109f3610c6c565b73ffffffffffffffffffffffffffffffffffffffff1673ffffffffffffffffffffffffffffffffffffffff16815260200190815260200160002060008573ffffffffffffffffffffffffffffffffffffffff1673ffffffffffffffffffffffffffffffffffffffff16815260200190815260200160002054905082811015610ab0576040517f08c379a0000000000000000000000000000000000000000000000000000000008152600401610aa7906119fe565b60405180910390fd5b610ac4610abb610c6c565b85858403610c74565b600191505092915050565b6000610ae3610adc610c6c565b8484610e3f565b6001905092915050565b6000600160008473ffffffffffffffffffffffffffffffffffffffff1673ffffffffffffffffffffffffffffffffffffffff16815260200190815260200160002060008373ffffffffffffffffffffffffffffffffffffffff1673ffffffffffffffffffffffffffffffffffffffff16815260200190815260200160002054905092915050565b610b7c610c6c565b73ffffffffffffffffffffffffffffffffffffffff16610b9a61089e565b73ffffffffffffffffffffffffffffffffffffffff1614610bf0576040517f08c379a0000000000000000000000000000000000000000000000000000000008152600401610be79061195e565b60405180910390fd5b600073ffffffffffffffffffffffffffffffffffffffff168173ffffffffffffffffffffffffffffffffffffffff161415610c60576040517f08c379a0000000000000000000000000000000000000000000000000000000008152600401610c57906118de565b60405180910390fd5b610c69816113f7565b50565b600033905090565b600073ffffffffffffffffffffffffffffffffffffffff168373ffffffffffffffffffffffffffffffffffffffff161415610ce4576040517f08c379a0000000000000000000000000000000000000000000000000000000008152600401610cdb906119de565b60405180910390fd5b600073ffffffffffffffffffffffffffffffffffffffff168273ffffffffffffffffffffffffffffffffffffffff161415610d54576040517f08c379a0000000000000000000000000000000000000000000000000000000008152600401610d4b906118fe565b60405180910390fd5b80600160008573ffffffffffffffffffffffffffffffffffffffff1673ffffffffffffffffffffffffffffffffffffffff16815260200190815260200160002060008473ffffffffffffffffffffffffffffffffffffffff1673ffffffffffffffffffffffffffffffffffffffff168152602001908152602001600020819055508173ffffffffffffffffffffffffffffffffffffffff168373ffffffffffffffffffffffffffffffffffffffff167f8c5be1e5ebec7d5bd14f71427d1e84f3dd0314c0f7b2291e5b200ac8c7c3b92583604051610e329190611a3e565b60405180910390a3505050565b600073ffffffffffffffffffffffffffffffffffffffff168373ffffffffffffffffffffffffffffffffffffffff161415610eaf576040517f08c379a0000000000000000000000000000000000000000000000000000000008152600401610ea6906119be565b60405180910390fd5b600073ffffffffffffffffffffffffffffffffffffffff168273ffffffffffffffffffffffffffffffffffffffff161415610f1f576040517f08c379a0000000000000000000000000000000000000000000000000000000008152600401610f169061189e565b60405180910390fd5b610f2a8383836114bd565b60008060008573ffffffffffffffffffffffffffffffffffffffff1673ffffffffffffffffffffffffffffffffffffffff16815260200190815260200160002054905081811015610fb0576040517f08c379a0000000000000000000000000000000000000000000000000000000008152600401610fa79061191e565b60405180910390fd5b8181036000808673ffffffffffffffffffffffffffffffffffffffff1673ffffffffffffffffffffffffffffffffffffffff16815260200190815260200160002081905550816000808573ffffffffffffffffffffffffffffffffffffffff1673ffffffffffffffffffffffffffffffffffffffff16815260200190815260200160002060008282546110439190611a90565b925050819055508273ffffffffffffffffffffffffffffffffffffffff168473ffffffffffffffffffffffffffffffffffffffff167fddf252ad1be2c89b69c2b068fc378daa952ba7f163c4a11628f55a4df523b3ef846040516110a79190611a3e565b60405180910390a36110ba8484846114c2565b50505050565b600073ffffffffffffffffffffffffffffffffffffffff168273ffffffffffffffffffffffffffffffffffffffff161415611130576040517f08c379a000000000000000000000000000000000000000000000000000000000815260040161112790611a1e565b60405180910390fd5b61113c600083836114bd565b806002600082825461114e9190611a90565b92505081905550806000808473ffffffffffffffffffffffffffffffffffffffff1673ffffffffffffffffffffffffffffffffffffffff16815260200190815260200160002060008282546111a39190611a90565b925050819055508173ffffffffffffffffffffffffffffffffffffffff16600073ffffffffffffffffffffffffffffffffffffffff167fddf252ad1be2c89b69c2b068fc378daa952ba7f163c4a11628f55a4df523b3ef836040516112089190611a3e565b60405180910390a361121c600083836114c2565b5050565b600073ffffffffffffffffffffffffffffffffffffffff168273ffffffffffffffffffffffffffffffffffffffff161415611290576040517f08c379a00000000000000000000000000000000000000000000000000000000081526004016112879061199e565b60405180910390fd5b61129c826000836114bd565b60008060008473ffffffffffffffffffffffffffffffffffffffff1673ffffffffffffffffffffffffffffffffffffffff16815260200190815260200160002054905081811015611322576040517f08c379a0000000000000000000000000000000000000000000000000000000008152600401611319906118be565b60405180910390fd5b8181036000808573ffffffffffffffffffffffffffffffffffffffff1673ffffffffffffffffffffffffffffffffffffffff1681526020019081526020016000208190555081600260008282546113799190611ae6565b92505081905550600073ffffffffffffffffffffffffffffffffffffffff168373ffffffffffffffffffffffffffffffffffffffff167fddf252ad1be2c89b69c2b068fc378daa952ba7f163c4a11628f55a4df523b3ef846040516113de9190611a3e565b60405180910390a36113f2836000846114c2565b505050565b6000600560009054906101000a900473ffffffffffffffffffffffffffffffffffffffff16905081600560006101000a81548173ffffffffffffffffffffffffffffffffffffffff021916908373ffffffffffffffffffffffffffffffffffffffff1602179055508173ffffffffffffffffffffffffffffffffffffffff168173ffffffffffffffffffffffffffffffffffffffff167f8be0079c531659141344cd1fd0a4f28419497f9722a3daafe3b4186f6b6457e060405160405180910390a35050565b505050565b505050565b6000813590506114d681611ffa565b92915050565b6000813590506114eb81612011565b92915050565b60006020828403121561150357600080fd5b6000611511848285016114c7565b91505092915050565b6000806040838503121561152d57600080fd5b600061153b858286016114c7565b925050602061154c858286016114c7565b9150509250929050565b60008060006060848603121561156b57600080fd5b6000611579868287016114c7565b935050602061158a868287016114c7565b925050604061159b868287016114dc565b9150509250925092565b600080604083850312156115b857600080fd5b60006115c6858286016114c7565b92505060206115d7858286016114dc565b9150509250929050565b6000602082840312156115f357600080fd5b6000611601848285016114dc565b91505092915050565b61161381611b1a565b82525050565b61162281611b2c565b82525050565b600061163382611a74565b61163d8185611a7f565b935061164d818560208601611b6f565b61165681611c32565b840191505092915050565b600061166e602383611a7f565b915061167982611c43565b604082019050919050565b6000611691602283611a7f565b915061169c82611c92565b604082019050919050565b60006116b4602683611a7f565b91506116bf82611ce1565b604082019050919050565b60006116d7602283611a7f565b91506116e282611d30565b604082019050919050565b60006116fa602683611a7f565b915061170582611d7f565b604082019050919050565b600061171d602883611a7f565b915061172882611dce565b604082019050919050565b6000611740602083611a7f565b915061174b82611e1d565b602082019050919050565b6000611763602483611a7f565b915061176e82611e46565b604082019050919050565b6000611786602183611a7f565b915061179182611e95565b604082019050919050565b60006117a9602583611a7f565b91506117b482611ee4565b604082019050919050565b60006117cc602483611a7f565b91506117d782611f33565b604082019050919050565b60006117ef602583611a7f565b91506117fa82611f82565b604082019050919050565b6000611812601f83611a7f565b915061181d82611fd1565b602082019050919050565b61183181611b58565b82525050565b61184081611b62565b82525050565b600060208201905061185b600083018461160a565b92915050565b60006020820190506118766000830184611619565b92915050565b600060208201905081810360008301526118968184611628565b905092915050565b600060208201905081810360008301526118b781611661565b9050919050565b600060208201905081810360008301526118d781611684565b9050919050565b600060208201905081810360008301526118f7816116a7565b9050919050565b60006020820190508181036000830152611917816116ca565b9050919050565b60006020820190508181036000830152611937816116ed565b9050919050565b6000602082019050818103600083015261195781611710565b9050919050565b6000602082019050818103600083015261197781611733565b9050919050565b6000602082019050818103600083015261199781611756565b9050919050565b600060208201905081810360008301526119b781611779565b9050919050565b600060208201905081810360008301526119d78161179c565b9050919050565b600060208201905081810360008301526119f7816117bf565b9050919050565b60006020820190508181036000830152611a17816117e2565b9050919050565b60006020820190508181036000830152611a3781611805565b9050919050565b6000602082019050611a536000830184611828565b92915050565b6000602082019050611a6e6000830184611837565b92915050565b600081519050919050565b600082825260208201905092915050565b6000611a9b82611b58565b9150611aa683611b58565b9250827fffffffffffffffffffffffffffffffffffffffffffffffffffffffffffffffff03821115611adb57611ada611bd4565b5b828201905092915050565b6000611af182611b58565b9150611afc83611b58565b925082821015611b0f57611b0e611bd4565b5b828203905092915050565b6000611b2582611b38565b9050919050565b60008115159050919050565b600073ffffffffffffffffffffffffffffffffffffffff82169050919050565b6000819050919050565b600060ff82169050919050565b60005b83811015611b8d578082015181840152602081019050611b72565b83811115611b9c576000848401525b50505050565b60006002820490506001821680611bba57607f821691505b60208210811415611bce57611bcd611c03565b5b50919050565b7f4e487b7100000000000000000000000000000000000000000000000000000000600052601160045260246000fd5b7f4e487b7100000000000000000000000000000000000000000000000000000000600052602260045260246000fd5b6000601f19601f8301169050919050565b7f45524332303a207472616e7366657220746f20746865207a65726f206164647260008201527f6573730000000000000000000000000000000000000000000000000000000000602082015250565b7f45524332303a206275726e20616d6f756e7420657863656564732062616c616e60008201527f6365000000000000000000000000000000000000000000000000000000000000602082015250565b7f4f776e61626c653a206e6577206f776e657220697320746865207a65726f206160008201527f6464726573730000000000000000000000000000000000000000000000000000602082015250565b7f45524332303a20617070726f766520746f20746865207a65726f20616464726560008201527f7373000000000000000000000000000000000000000000000000000000000000602082015250565b7f45524332303a207472616e7366657220616d6f756e742065786365656473206260008201527f616c616e63650000000000000000000000000000000000000000000000000000602082015250565b7f45524332303a207472616e7366657220616d6f756e742065786365656473206160008201527f6c6c6f77616e6365000000000000000000000000000000000000000000000000602082015250565b7f4f776e61626c653a2063616c6c6572206973206e6f7420746865206f776e6572600082015250565b7f45524332303a206275726e20616d6f756e74206578636565647320616c6c6f7760008201527f616e636500000000000000000000000000000000000000000000000000000000602082015250565b7f45524332303a206275726e2066726f6d20746865207a65726f2061646472657360008201527f7300000000000000000000000000000000000000000000000000000000000000602082015250565b7f45524332303a207472616e736665722066726f6d20746865207a65726f20616460008201527f6472657373000000000000000000000000000000000000000000000000000000602082015250565b7f45524332303a20617070726f76652066726f6d20746865207a65726f2061646460008201527f7265737300000000000000000000000000000000000000000000000000000000602082015250565b7f45524332303a2064656372656173656420616c6c6f77616e63652062656c6f7760008201527f207a65726f000000000000000000000000000000000000000000000000000000602082015250565b7f45524332303a206d696e7420746f20746865207a65726f206164647265737300600082015250565b61200381611b1a565b811461200e57600080fd5b50565b61201a81611b58565b811461202557600080fd5b5056fea2646970667358221220cb527c8363b481f22bc25e2899ee235ef320b6c6cd87c636825ca9a686be46c664736f6c63430008040033",
  "linkReferences": {},
  "deployedLinkReferences": {}
}